{
  "contractName": "Escrovery",
  "abi": [
    {
      "constant": true,
      "inputs": [],
      "name": "manager",
      "outputs": [
        {
          "name": "",
          "type": "address"
        }
      ],
      "payable": false,
      "stateMutability": "view",
      "type": "function"
    },
    {
      "inputs": [],
      "payable": false,
      "stateMutability": "nonpayable",
      "type": "constructor"
    },
    {
      "constant": false,
      "inputs": [],
      "name": "createAccount",
      "outputs": [],
      "payable": true,
      "stateMutability": "payable",
      "type": "function"
    },
    {
      "constant": false,
      "inputs": [],
      "name": "closeAccount",
      "outputs": [],
      "payable": false,
      "stateMutability": "nonpayable",
      "type": "function"
    },
    {
      "constant": false,
      "inputs": [
        {
          "name": "dataHash",
          "type": "bytes32"
        }
      ],
      "name": "submitChallenge",
      "outputs": [],
      "payable": true,
      "stateMutability": "payable",
      "type": "function"
    },
    {
      "constant": false,
      "inputs": [
        {
          "name": "challengedAddress",
          "type": "address"
        },
        {
          "name": "newAddress",
          "type": "address"
        }
      ],
      "name": "revealChallenge",
      "outputs": [],
      "payable": false,
      "stateMutability": "nonpayable",
      "type": "function"
    },
    {
      "constant": false,
      "inputs": [
        {
          "name": "challengedAddress",
          "type": "address"
        }
      ],
      "name": "claimChallenge",
      "outputs": [],
      "payable": false,
      "stateMutability": "nonpayable",
      "type": "function"
    },
    {
      "constant": false,
      "inputs": [],
      "name": "respondToChallenges",
      "outputs": [],
      "payable": false,
      "stateMutability": "nonpayable",
      "type": "function"
    },
    {
      "constant": false,
      "inputs": [
        {
          "name": "accountAddress",
          "type": "address"
        }
      ],
      "name": "giveAccountOpenChallenges",
      "outputs": [],
      "payable": false,
      "stateMutability": "nonpayable",
      "type": "function"
    }
  ],
  "bytecode": "0x608060405234801561001057600080fd5b50336000806101000a81548173ffffffffffffffffffffffffffffffffffffffff021916908373ffffffffffffffffffffffffffffffffffffffff160217905550610f1c806100606000396000f30060806040526004361061008e576000357c0100000000000000000000000000000000000000000000000000000000900463ffffffff168063162878cf1461009357806322294160146100aa57806324492c06146100ed578063481c6a7514610150578063574a4d41146101a75780636dd22fc6146101ea5780639dca362f14610201578063c33895b01461020b575b600080fd5b34801561009f57600080fd5b506100a861022f565b005b3480156100b657600080fd5b506100eb600480360381019080803573ffffffffffffffffffffffffffffffffffffffff169060200190929190505050610291565b005b3480156100f957600080fd5b5061014e600480360381019080803573ffffffffffffffffffffffffffffffffffffffff169060200190929190803573ffffffffffffffffffffffffffffffffffffffff169060200190929190505050610568565b005b34801561015c57600080fd5b50610165610873565b604051808273ffffffffffffffffffffffffffffffffffffffff1673ffffffffffffffffffffffffffffffffffffffff16815260200191505060405180910390f35b3480156101b357600080fd5b506101e8600480360381019080803573ffffffffffffffffffffffffffffffffffffffff169060200190929190505050610898565b005b3480156101f657600080fd5b506101ff610985565b005b610209610ad8565b005b61022d6004803603810190808035600019169060200190929190505050610be7565b005b6000600260003373ffffffffffffffffffffffffffffffffffffffff1673ffffffffffffffffffffffffffffffffffffffff16815260200190815260200160002090506000816000015411151561028557600080fd5b61028e33610898565b50565b6000806000600260008573ffffffffffffffffffffffffffffffffffffffff1673ffffffffffffffffffffffffffffffffffffffff1681526020019081526020016000209250600083600001541115156102ea57600080fd5b60009050600090505b600a81101561037d578260020181600a8110151561030d57fe5b6003020191503373ffffffffffffffffffffffffffffffffffffffff168260000160009054906101000a900473ffffffffffffffffffffffffffffffffffffffff1673ffffffffffffffffffffffffffffffffffffffff1614156103705761037d565b80806001019150506102f3565b60008114151561038c57600080fd5b3373ffffffffffffffffffffffffffffffffffffffff168260000160009054906101000a900473ffffffffffffffffffffffffffffffffffffffff1673ffffffffffffffffffffffffffffffffffffffff161415156103ea57600080fd5b82600101548260020154014210151561040257600080fd5b82600260003373ffffffffffffffffffffffffffffffffffffffff1673ffffffffffffffffffffffffffffffffffffffff1681526020019081526020016000206000820154816000015560018201548160010155600282018160020190600a61046c929190610cd2565b5060208201816020019080546001816001161561010002031660029004610494929190610d90565b509050508260020181600a811015156104a957fe5b60030201600080820160006101000a81549073ffffffffffffffffffffffffffffffffffffffff0219169055600182016000905560028201600090555050600260008573ffffffffffffffffffffffffffffffffffffffff1673ffffffffffffffffffffffffffffffffffffffff16815260200190815260200160002060008082016000905560018201600090556002820160006105479190610e17565b6020820160006105579190610e2d565b505061056233610898565b50505050565b6000806000806201518093508486604051602001808373ffffffffffffffffffffffffffffffffffffffff1673ffffffffffffffffffffffffffffffffffffffff166c01000000000000000000000000028152601401807f7c7c0000000000000000000000000000000000000000000000000000000000008152506002018273ffffffffffffffffffffffffffffffffffffffff1673ffffffffffffffffffffffffffffffffffffffff166c01000000000000000000000000028152601401925050506040516020818303038152906040526040518082805190602001908083835b60208310151561066f578051825260208201915060208101905060208303925061064a565b6001836020036101000a038019825116818451168082178552505050505050905001915050604051809103902092506001600084600019166000191681526020019081526020016000209150600082600101541115156106ce57600080fd5b83826002015401421015156106e257600080fd5b600260008773ffffffffffffffffffffffffffffffffffffffff1673ffffffffffffffffffffffffffffffffffffffff16815260200190815260200160002090506000816000015411151561073657600080fd5b848260000160006101000a81548173ffffffffffffffffffffffffffffffffffffffff021916908373ffffffffffffffffffffffffffffffffffffffff1602179055504282600201819055508181600201600a808110151561079457fe5b600302016000820160009054906101000a900473ffffffffffffffffffffffffffffffffffffffff168160000160006101000a81548173ffffffffffffffffffffffffffffffffffffffff021916908373ffffffffffffffffffffffffffffffffffffffff1602179055506001820154816001015560028201548160020155905050600160008460001916600019168152602001908152602001600020600080820160006101000a81549073ffffffffffffffffffffffffffffffffffffffff0219169055600182016000905560028201600090555050505050505050565b6000809054906101000a900473ffffffffffffffffffffffffffffffffffffffff1681565b6000806000600260008573ffffffffffffffffffffffffffffffffffffffff1673ffffffffffffffffffffffffffffffffffffffff1681526020019081526020016000209250600091505b600a82101561097f578260020182600a811015156108fd57fe5b60030201905080600101548360000160008282540192505081905550600081600101819055508260020182600a8110151561093457fe5b60030201600080820160006101000a81549073ffffffffffffffffffffffffffffffffffffffff021916905560018201600090556002820160009055505081806001019250506108e3565b50505050565b600080600260003373ffffffffffffffffffffffffffffffffffffffff1673ffffffffffffffffffffffffffffffffffffffff168152602001908152602001600020600001541115156109d757600080fd5b600260003373ffffffffffffffffffffffffffffffffffffffff1673ffffffffffffffffffffffffffffffffffffffff168152602001908152602001600020600001549050600260003373ffffffffffffffffffffffffffffffffffffffff1673ffffffffffffffffffffffffffffffffffffffff1681526020019081526020016000206000808201600090556001820160009055600282016000610a7c9190610e17565b602082016000610a8c9190610e2d565b50503373ffffffffffffffffffffffffffffffffffffffff166108fc829081150290604051600060405180830381858888f19350505050158015610ad4573d6000803e3d6000fd5b5050565b600080600260003373ffffffffffffffffffffffffffffffffffffffff1673ffffffffffffffffffffffffffffffffffffffff16815260200190815260200160002060000154141515610b2a57600080fd5b600034111515610b3957600080fd5b34816000018190555062093a80816001018190555080600260003373ffffffffffffffffffffffffffffffffffffffff1673ffffffffffffffffffffffffffffffffffffffff1681526020019081526020016000206000820154816000015560018201548160010155600282018160020190600a610bb8929190610cd2565b5060208201816020019080546001816001161561010002031660029004610be0929190610d90565b5090505050565b600060016000836000191660001916815260200190815260200160002060010154141515610c1457600080fd5b600034111515610c2357600080fd5b606060405190810160405280600073ffffffffffffffffffffffffffffffffffffffff1681526020013481526020014281525060016000836000191660001916815260200190815260200160002060008201518160000160006101000a81548173ffffffffffffffffffffffffffffffffffffffff021916908373ffffffffffffffffffffffffffffffffffffffff160217905550602082015181600101556040820151816002015590505050565b82600a6003028101928215610d7f579160030282015b82811115610d7e5782826000820160009054906101000a900473ffffffffffffffffffffffffffffffffffffffff168160000160006101000a81548173ffffffffffffffffffffffffffffffffffffffff021916908373ffffffffffffffffffffffffffffffffffffffff1602179055506001820154816001015560028201548160020155505091600301919060030190610ce8565b5b509050610d8c9190610e75565b5090565b828054600181600116156101000203166002900490600052602060002090601f016020900481019282601f10610dc95780548555610e06565b82800160010185558215610e0657600052602060002091601f016020900482015b82811115610e05578254825591600101919060010190610dea565b5b509050610e139190610ecb565b5090565b5080600a6003020190610e2a9190610e75565b50565b50805460018160011615610100020316600290046000825580601f10610e535750610e72565b601f016020900490600052602060002090810190610e719190610ecb565b5b50565b610ec891905b80821115610ec457600080820160006101000a81549073ffffffffffffffffffffffffffffffffffffffff02191690556001820160009055600282016000905550600301610e7b565b5090565b90565b610eed91905b80821115610ee9576000816000905550600101610ed1565b5090565b905600a165627a7a7230582010e4687dcceda9833c72627c38b100ce589ebff1c29b3eb71fda64f3b9bafde80029",
  "source": "/**\n * (c) 2018 Jeff Pickhardt. All rights reserved.\n *\n * Proof of concept of Escrovery, a method of account recovery.\n */\n\npragma solidity ^0.4.24;\ncontract Escrovery {\n  address public manager;\n  \n  struct Challenge {\n      address newAddress;\n      uint escrowedAmount;\n      uint blockTime;\n  }\n  \n  struct Account {\n      uint balance;\n      uint challengeDuration;\n      Challenge[10] openChallenges; // TODO use dynamic sizing\n      string description; // Optional description that may help you find your account if you forget which one it is. For example, \"Jeff's account\"\n  }\n  \n  mapping(bytes32 => Challenge) unrevealedChallenges;\n\n  mapping(address => Account) accounts;\n \n  constructor() public {\n    manager = msg.sender;\n  }\n\n  function createAccount() public payable {\n      require(accounts[msg.sender].balance == 0);\n      require(msg.value > 0);\n      \n      Account storage myAccount;\n      myAccount.balance = msg.value;\n      myAccount.challengeDuration = 604800; // 7 days in seconds\n      accounts[msg.sender] = myAccount;\n  }\n  \n  function closeAccount() public {\n      require(accounts[msg.sender].balance > 0);\n\n      uint closingBalance = accounts[msg.sender].balance;\n      delete accounts[msg.sender];\n      msg.sender.transfer(closingBalance);\n  }\n  \n  function submitChallenge(bytes32 dataHash) public payable {\n      require(unrevealedChallenges[dataHash].escrowedAmount == 0);\n      require(msg.value > 0);\n      \n      unrevealedChallenges[dataHash] = Challenge({\n          newAddress: address(0),\n          escrowedAmount: msg.value, // TODO bin the values to powers of k, for some k\n          blockTime: now\n      });\n  }\n  \n  function revealChallenge(address challengedAddress, address newAddress) public {\n      uint REVEAL_VALID_DURATION = 86400; // 1 day in seconds\n      bytes32 computedDataHash = keccak256(abi.encodePacked(newAddress, '||', challengedAddress));\n      Challenge storage referencedChallenge = unrevealedChallenges[computedDataHash];\n      require(referencedChallenge.escrowedAmount > 0);\n      require(now < (referencedChallenge.blockTime + REVEAL_VALID_DURATION));\n      Account storage challengedAccount = accounts[challengedAddress];\n      require(challengedAccount.balance > 0);\n      \n      referencedChallenge.newAddress = newAddress;\n      referencedChallenge.blockTime = now;\n      challengedAccount.openChallenges[challengedAccount.openChallenges.length] = referencedChallenge;\n      delete unrevealedChallenges[computedDataHash];\n  }\n  \n  function claimChallenge(address challengedAddress) public {\n      Account storage challengedAccount = accounts[challengedAddress];\n      require(challengedAccount.balance > 0);\n      \n      Challenge storage myChallenge;\n      uint i = 0;\n      for (i = 0; i < challengedAccount.openChallenges.length; i++){\n          myChallenge = challengedAccount.openChallenges[i];\n          if (myChallenge.newAddress == msg.sender) {\n              break;\n          }\n      }\n      \n      // Require the first open challenge to be the winner\n      // TODO relax this assumption\n      require(i == 0);\n      require(myChallenge.newAddress == msg.sender);\n      require(now < myChallenge.blockTime + challengedAccount.challengeDuration);\n      \n      accounts[msg.sender] = challengedAccount;\n      delete challengedAccount.openChallenges[i];\n      delete accounts[challengedAddress]; \n      giveAccountOpenChallenges(msg.sender);\n  }\n  \n  // Clears all open challenges for an account that you own.\n  function respondToChallenges() public {\n      Account storage myAccount = accounts[msg.sender];\n      require(myAccount.balance > 0);\n      giveAccountOpenChallenges(msg.sender);\n  }\n  \n  function giveAccountOpenChallenges(address accountAddress) {\n      Account storage whichAccount = accounts[accountAddress];\n      for (uint i = 0; i < whichAccount.openChallenges.length; i++){\n          Challenge storage whichChallenge = whichAccount.openChallenges[i];\n          whichAccount.balance += whichChallenge.escrowedAmount;\n          whichChallenge.escrowedAmount = 0;\n          delete whichAccount.openChallenges[i];\n      }\n  }\n}\n",
  "sourcePath": "/Users/newmac/projects/escrovery/contracts/Escrovery.sol",
  "compiler": {
    "name": "solc",
    "version": "0.4.24+commit.e67f0147.Emscripten.clang"
  },
  "schemaVersion": "2.0.1",
  "updatedAt": "2018-10-11T00:24:42.782Z"
}